{
  "_format": "hh-sol-artifact-1",
  "contractName": "NFTMinter",
  "sourceName": "contracts/NFTMinter.sol",
  "abi": [
    {
      "inputs": [
        {
          "internalType": "address",
          "name": "initialOwner",
          "type": "address"
        }
      ],
      "stateMutability": "nonpayable",
      "type": "constructor"
    },
    {
      "inputs": [],
      "name": "ERC721EnumerableForbiddenBatchMint",
      "type": "error"
    },
    {
      "inputs": [
        {
          "internalType": "address",
          "name": "sender",
          "type": "address"
        },
        {
          "internalType": "uint256",
          "name": "tokenId",
          "type": "uint256"
        },
        {
          "internalType": "address",
          "name": "owner",
          "type": "address"
        }
      ],
      "name": "ERC721IncorrectOwner",
      "type": "error"
    },
    {
      "inputs": [
        {
          "internalType": "address",
          "name": "operator",
          "type": "address"
        },
        {
          "internalType": "uint256",
          "name": "tokenId",
          "type": "uint256"
        }
      ],
      "name": "ERC721InsufficientApproval",
      "type": "error"
    },
    {
      "inputs": [
        {
          "internalType": "address",
          "name": "approver",
          "type": "address"
        }
      ],
      "name": "ERC721InvalidApprover",
      "type": "error"
    },
    {
      "inputs": [
        {
          "internalType": "address",
          "name": "operator",
          "type": "address"
        }
      ],
      "name": "ERC721InvalidOperator",
      "type": "error"
    },
    {
      "inputs": [
        {
          "internalType": "address",
          "name": "owner",
          "type": "address"
        }
      ],
      "name": "ERC721InvalidOwner",
      "type": "error"
    },
    {
      "inputs": [
        {
          "internalType": "address",
          "name": "receiver",
          "type": "address"
        }
      ],
      "name": "ERC721InvalidReceiver",
      "type": "error"
    },
    {
      "inputs": [
        {
          "internalType": "address",
          "name": "sender",
          "type": "address"
        }
      ],
      "name": "ERC721InvalidSender",
      "type": "error"
    },
    {
      "inputs": [
        {
          "internalType": "uint256",
          "name": "tokenId",
          "type": "uint256"
        }
      ],
      "name": "ERC721NonexistentToken",
      "type": "error"
    },
    {
      "inputs": [
        {
          "internalType": "address",
          "name": "owner",
          "type": "address"
        },
        {
          "internalType": "uint256",
          "name": "index",
          "type": "uint256"
        }
      ],
      "name": "ERC721OutOfBoundsIndex",
      "type": "error"
    },
    {
      "inputs": [
        {
          "internalType": "address",
          "name": "owner",
          "type": "address"
        }
      ],
      "name": "OwnableInvalidOwner",
      "type": "error"
    },
    {
      "inputs": [
        {
          "internalType": "address",
          "name": "account",
          "type": "address"
        }
      ],
      "name": "OwnableUnauthorizedAccount",
      "type": "error"
    },
    {
      "anonymous": false,
      "inputs": [
        {
          "indexed": true,
          "internalType": "address",
          "name": "owner",
          "type": "address"
        },
        {
          "indexed": true,
          "internalType": "address",
          "name": "approved",
          "type": "address"
        },
        {
          "indexed": true,
          "internalType": "uint256",
          "name": "tokenId",
          "type": "uint256"
        }
      ],
      "name": "Approval",
      "type": "event"
    },
    {
      "anonymous": false,
      "inputs": [
        {
          "indexed": true,
          "internalType": "address",
          "name": "owner",
          "type": "address"
        },
        {
          "indexed": true,
          "internalType": "address",
          "name": "operator",
          "type": "address"
        },
        {
          "indexed": false,
          "internalType": "bool",
          "name": "approved",
          "type": "bool"
        }
      ],
      "name": "ApprovalForAll",
      "type": "event"
    },
    {
      "anonymous": false,
      "inputs": [
        {
          "indexed": false,
          "internalType": "uint256",
          "name": "_fromTokenId",
          "type": "uint256"
        },
        {
          "indexed": false,
          "internalType": "uint256",
          "name": "_toTokenId",
          "type": "uint256"
        }
      ],
      "name": "BatchMetadataUpdate",
      "type": "event"
    },
    {
      "anonymous": false,
      "inputs": [
        {
          "indexed": false,
          "internalType": "uint256",
          "name": "_tokenId",
          "type": "uint256"
        }
      ],
      "name": "MetadataUpdate",
      "type": "event"
    },
    {
      "anonymous": false,
      "inputs": [
        {
          "indexed": true,
          "internalType": "address",
          "name": "previousOwner",
          "type": "address"
        },
        {
          "indexed": true,
          "internalType": "address",
          "name": "newOwner",
          "type": "address"
        }
      ],
      "name": "OwnershipTransferred",
      "type": "event"
    },
    {
      "anonymous": false,
      "inputs": [
        {
          "indexed": true,
          "internalType": "address",
          "name": "from",
          "type": "address"
        },
        {
          "indexed": true,
          "internalType": "address",
          "name": "to",
          "type": "address"
        },
        {
          "indexed": true,
          "internalType": "uint256",
          "name": "tokenId",
          "type": "uint256"
        }
      ],
      "name": "Transfer",
      "type": "event"
    },
    {
      "inputs": [
        {
          "internalType": "address",
          "name": "to",
          "type": "address"
        },
        {
          "internalType": "uint256",
          "name": "tokenId",
          "type": "uint256"
        }
      ],
      "name": "approve",
      "outputs": [],
      "stateMutability": "nonpayable",
      "type": "function"
    },
    {
      "inputs": [
        {
          "internalType": "address",
          "name": "owner",
          "type": "address"
        }
      ],
      "name": "balanceOf",
      "outputs": [
        {
          "internalType": "uint256",
          "name": "",
          "type": "uint256"
        }
      ],
      "stateMutability": "view",
      "type": "function"
    },
    {
      "inputs": [
        {
          "internalType": "uint256",
          "name": "tokenId",
          "type": "uint256"
        }
      ],
      "name": "getApproved",
      "outputs": [
        {
          "internalType": "address",
          "name": "",
          "type": "address"
        }
      ],
      "stateMutability": "view",
      "type": "function"
    },
    {
      "inputs": [
        {
          "internalType": "address",
          "name": "owner",
          "type": "address"
        },
        {
          "internalType": "address",
          "name": "operator",
          "type": "address"
        }
      ],
      "name": "isApprovedForAll",
      "outputs": [
        {
          "internalType": "bool",
          "name": "",
          "type": "bool"
        }
      ],
      "stateMutability": "view",
      "type": "function"
    },
    {
      "inputs": [],
      "name": "name",
      "outputs": [
        {
          "internalType": "string",
          "name": "",
          "type": "string"
        }
      ],
      "stateMutability": "view",
      "type": "function"
    },
    {
      "inputs": [],
      "name": "owner",
      "outputs": [
        {
          "internalType": "address",
          "name": "",
          "type": "address"
        }
      ],
      "stateMutability": "view",
      "type": "function"
    },
    {
      "inputs": [
        {
          "internalType": "uint256",
          "name": "tokenId",
          "type": "uint256"
        }
      ],
      "name": "ownerOf",
      "outputs": [
        {
          "internalType": "address",
          "name": "",
          "type": "address"
        }
      ],
      "stateMutability": "view",
      "type": "function"
    },
    {
      "inputs": [],
      "name": "renounceOwnership",
      "outputs": [],
      "stateMutability": "nonpayable",
      "type": "function"
    },
    {
      "inputs": [
        {
          "internalType": "address",
          "name": "to",
          "type": "address"
        },
        {
          "internalType": "string",
          "name": "uri",
          "type": "string"
        }
      ],
      "name": "safeMint",
      "outputs": [
        {
          "internalType": "uint256",
          "name": "",
          "type": "uint256"
        }
      ],
      "stateMutability": "nonpayable",
      "type": "function"
    },
    {
      "inputs": [
        {
          "internalType": "address",
          "name": "from",
          "type": "address"
        },
        {
          "internalType": "address",
          "name": "to",
          "type": "address"
        },
        {
          "internalType": "uint256",
          "name": "tokenId",
          "type": "uint256"
        }
      ],
      "name": "safeTransferFrom",
      "outputs": [],
      "stateMutability": "nonpayable",
      "type": "function"
    },
    {
      "inputs": [
        {
          "internalType": "address",
          "name": "from",
          "type": "address"
        },
        {
          "internalType": "address",
          "name": "to",
          "type": "address"
        },
        {
          "internalType": "uint256",
          "name": "tokenId",
          "type": "uint256"
        },
        {
          "internalType": "bytes",
          "name": "data",
          "type": "bytes"
        }
      ],
      "name": "safeTransferFrom",
      "outputs": [],
      "stateMutability": "nonpayable",
      "type": "function"
    },
    {
      "inputs": [
        {
          "internalType": "address",
          "name": "operator",
          "type": "address"
        },
        {
          "internalType": "bool",
          "name": "approved",
          "type": "bool"
        }
      ],
      "name": "setApprovalForAll",
      "outputs": [],
      "stateMutability": "nonpayable",
      "type": "function"
    },
    {
      "inputs": [
        {
          "internalType": "bytes4",
          "name": "interfaceId",
          "type": "bytes4"
        }
      ],
      "name": "supportsInterface",
      "outputs": [
        {
          "internalType": "bool",
          "name": "",
          "type": "bool"
        }
      ],
      "stateMutability": "view",
      "type": "function"
    },
    {
      "inputs": [],
      "name": "symbol",
      "outputs": [
        {
          "internalType": "string",
          "name": "",
          "type": "string"
        }
      ],
      "stateMutability": "view",
      "type": "function"
    },
    {
      "inputs": [
        {
          "internalType": "uint256",
          "name": "index",
          "type": "uint256"
        }
      ],
      "name": "tokenByIndex",
      "outputs": [
        {
          "internalType": "uint256",
          "name": "",
          "type": "uint256"
        }
      ],
      "stateMutability": "view",
      "type": "function"
    },
    {
      "inputs": [
        {
          "internalType": "address",
          "name": "owner",
          "type": "address"
        },
        {
          "internalType": "uint256",
          "name": "index",
          "type": "uint256"
        }
      ],
      "name": "tokenOfOwnerByIndex",
      "outputs": [
        {
          "internalType": "uint256",
          "name": "",
          "type": "uint256"
        }
      ],
      "stateMutability": "view",
      "type": "function"
    },
    {
      "inputs": [
        {
          "internalType": "uint256",
          "name": "tokenId",
          "type": "uint256"
        }
      ],
      "name": "tokenURI",
      "outputs": [
        {
          "internalType": "string",
          "name": "",
          "type": "string"
        }
      ],
      "stateMutability": "view",
      "type": "function"
    },
    {
      "inputs": [],
      "name": "totalSupply",
      "outputs": [
        {
          "internalType": "uint256",
          "name": "",
          "type": "uint256"
        }
      ],
      "stateMutability": "view",
      "type": "function"
    },
    {
      "inputs": [
        {
          "internalType": "address",
          "name": "from",
          "type": "address"
        },
        {
          "internalType": "address",
          "name": "to",
          "type": "address"
        },
        {
          "internalType": "uint256",
          "name": "tokenId",
          "type": "uint256"
        }
      ],
      "name": "transferFrom",
      "outputs": [],
      "stateMutability": "nonpayable",
      "type": "function"
    },
    {
      "inputs": [
        {
          "internalType": "address",
          "name": "newOwner",
          "type": "address"
        }
      ],
      "name": "transferOwnership",
      "outputs": [],
      "stateMutability": "nonpayable",
      "type": "function"
    }
  ],
  "bytecode": "0x60806040523480156200001157600080fd5b506040516200339638038062003396833981810160405281019062000037919062000288565b806040518060400160405280600981526020017f4e46544d696e74657200000000000000000000000000000000000000000000008152506040518060400160405280600381526020017f4e465400000000000000000000000000000000000000000000000000000000008152508160009081620000b5919062000534565b508060019081620000c7919062000534565b505050600073ffffffffffffffffffffffffffffffffffffffff168173ffffffffffffffffffffffffffffffffffffffff16036200013f5760006040517f1e4fbdf70000000000000000000000000000000000000000000000000000000081526004016200013691906200062c565b60405180910390fd5b62000150816200015860201b60201c565b505062000649565b6000600b60009054906101000a900473ffffffffffffffffffffffffffffffffffffffff16905081600b60006101000a81548173ffffffffffffffffffffffffffffffffffffffff021916908373ffffffffffffffffffffffffffffffffffffffff1602179055508173ffffffffffffffffffffffffffffffffffffffff168173ffffffffffffffffffffffffffffffffffffffff167f8be0079c531659141344cd1fd0a4f28419497f9722a3daafe3b4186f6b6457e060405160405180910390a35050565b600080fd5b600073ffffffffffffffffffffffffffffffffffffffff82169050919050565b6000620002508262000223565b9050919050565b620002628162000243565b81146200026e57600080fd5b50565b600081519050620002828162000257565b92915050565b600060208284031215620002a157620002a06200021e565b5b6000620002b18482850162000271565b91505092915050565b600081519050919050565b7f4e487b7100000000000000000000000000000000000000000000000000000000600052604160045260246000fd5b7f4e487b7100000000000000000000000000000000000000000000000000000000600052602260045260246000fd5b600060028204905060018216806200033c57607f821691505b602082108103620003525762000351620002f4565b5b50919050565b60008190508160005260206000209050919050565b60006020601f8301049050919050565b600082821b905092915050565b600060088302620003bc7fffffffffffffffffffffffffffffffffffffffffffffffffffffffffffffffff826200037d565b620003c886836200037d565b95508019841693508086168417925050509392505050565b6000819050919050565b6000819050919050565b6000620004156200040f6200040984620003e0565b620003ea565b620003e0565b9050919050565b6000819050919050565b6200043183620003f4565b6200044962000440826200041c565b8484546200038a565b825550505050565b600090565b6200046062000451565b6200046d81848462000426565b505050565b5b8181101562000495576200048960008262000456565b60018101905062000473565b5050565b601f821115620004e457620004ae8162000358565b620004b9846200036d565b81016020851015620004c9578190505b620004e1620004d8856200036d565b83018262000472565b50505b505050565b600082821c905092915050565b60006200050960001984600802620004e9565b1980831691505092915050565b6000620005248383620004f6565b9150826002028217905092915050565b6200053f82620002ba565b67ffffffffffffffff8111156200055b576200055a620002c5565b5b62000567825462000323565b6200057482828562000499565b600060209050601f831160018114620005ac576000841562000597578287015190505b620005a3858262000516565b86555062000613565b601f198416620005bc8662000358565b60005b82811015620005e657848901518255600182019150602085019450602081019050620005bf565b8683101562000606578489015162000602601f891682620004f6565b8355505b6001600288020188555050505b505050505050565b620006268162000243565b82525050565b60006020820190506200064360008301846200061b565b92915050565b612d3d80620006596000396000f3fe608060405234801561001057600080fd5b506004361061012c5760003560e01c806370a08231116100ad578063b88d4fde11610071578063b88d4fde14610343578063c87b56dd1461035f578063d204c45e1461038f578063e985e9c5146103bf578063f2fde38b146103ef5761012c565b806370a08231146102b1578063715018a6146102e15780638da5cb5b146102eb57806395d89b4114610309578063a22cb465146103275761012c565b806323b872dd116100f457806323b872dd146101e95780632f745c591461020557806342842e0e146102355780634f6ccce7146102515780636352211e146102815761012c565b806301ffc9a71461013157806306fdde0314610161578063081812fc1461017f578063095ea7b3146101af57806318160ddd146101cb575b600080fd5b61014b60048036038101906101469190612103565b61040b565b604051610158919061214b565b60405180910390f35b61016961041d565b60405161017691906121f6565b60405180910390f35b6101996004803603810190610194919061224e565b6104af565b6040516101a691906122bc565b60405180910390f35b6101c960048036038101906101c49190612303565b6104cb565b005b6101d36104e1565b6040516101e09190612352565b60405180910390f35b61020360048036038101906101fe919061236d565b6104ee565b005b61021f600480360381019061021a9190612303565b6105f0565b60405161022c9190612352565b60405180910390f35b61024f600480360381019061024a919061236d565b610699565b005b61026b6004803603810190610266919061224e565b6106b9565b6040516102789190612352565b60405180910390f35b61029b6004803603810190610296919061224e565b61072f565b6040516102a891906122bc565b60405180910390f35b6102cb60048036038101906102c691906123c0565b610741565b6040516102d89190612352565b60405180910390f35b6102e96107fb565b005b6102f361080f565b60405161030091906122bc565b60405180910390f35b610311610839565b60405161031e91906121f6565b60405180910390f35b610341600480360381019061033c9190612419565b6108cb565b005b61035d6004803603810190610358919061258e565b6108e1565b005b6103796004803603810190610374919061224e565b610906565b60405161038691906121f6565b60405180910390f35b6103a960048036038101906103a491906126b2565b610918565b6040516103b69190612352565b60405180910390f35b6103d960048036038101906103d4919061270e565b61095b565b6040516103e6919061214b565b60405180910390f35b610409600480360381019061040491906123c0565b6109ef565b005b600061041682610a75565b9050919050565b60606000805461042c9061277d565b80601f01602080910402602001604051908101604052809291908181526020018280546104589061277d565b80156104a55780601f1061047a576101008083540402835291602001916104a5565b820191906000526020600020905b81548152906001019060200180831161048857829003601f168201915b5050505050905090565b60006104ba82610ad6565b506104c482610b5e565b9050919050565b6104dd82826104d8610b9b565b610ba3565b5050565b6000600880549050905090565b600073ffffffffffffffffffffffffffffffffffffffff168273ffffffffffffffffffffffffffffffffffffffff16036105605760006040517f64a0ae9200000000000000000000000000000000000000000000000000000000815260040161055791906122bc565b60405180910390fd5b6000610574838361056f610b9b565b610bb5565b90508373ffffffffffffffffffffffffffffffffffffffff168173ffffffffffffffffffffffffffffffffffffffff16146105ea578382826040517f64283d7b0000000000000000000000000000000000000000000000000000000081526004016105e1939291906127ae565b60405180910390fd5b50505050565b60006105fb83610741565b82106106405782826040517fa57d13dc0000000000000000000000000000000000000000000000000000000081526004016106379291906127e5565b60405180910390fd5b600660008473ffffffffffffffffffffffffffffffffffffffff1673ffffffffffffffffffffffffffffffffffffffff168152602001908152602001600020600083815260200190815260200160002054905092915050565b6106b4838383604051806020016040528060008152506108e1565b505050565b60006106c36104e1565b8210610709576000826040517fa57d13dc0000000000000000000000000000000000000000000000000000000081526004016107009291906127e5565b60405180910390fd5b6008828154811061071d5761071c61280e565b5b90600052602060002001549050919050565b600061073a82610ad6565b9050919050565b60008073ffffffffffffffffffffffffffffffffffffffff168273ffffffffffffffffffffffffffffffffffffffff16036107b45760006040517f89c62b640000000000000000000000000000000000000000000000000000000081526004016107ab91906122bc565b60405180910390fd5b600360008373ffffffffffffffffffffffffffffffffffffffff1673ffffffffffffffffffffffffffffffffffffffff168152602001908152602001600020549050919050565b610803610bcb565b61080d6000610c52565b565b6000600b60009054906101000a900473ffffffffffffffffffffffffffffffffffffffff16905090565b6060600180546108489061277d565b80601f01602080910402602001604051908101604052809291908181526020018280546108749061277d565b80156108c15780601f10610896576101008083540402835291602001916108c1565b820191906000526020600020905b8154815290600101906020018083116108a457829003601f168201915b5050505050905090565b6108dd6108d6610b9b565b8383610d18565b5050565b6108ec8484846104ee565b6109006108f7610b9b565b85858585610e87565b50505050565b606061091182611038565b9050919050565b6000610922610bcb565b6000600c60008154809291906109379061286c565b919050559050610947848261114b565b6109518184611169565b8091505092915050565b6000600560008473ffffffffffffffffffffffffffffffffffffffff1673ffffffffffffffffffffffffffffffffffffffff16815260200190815260200160002060008373ffffffffffffffffffffffffffffffffffffffff1673ffffffffffffffffffffffffffffffffffffffff16815260200190815260200160002060009054906101000a900460ff16905092915050565b6109f7610bcb565b600073ffffffffffffffffffffffffffffffffffffffff168173ffffffffffffffffffffffffffffffffffffffff1603610a695760006040517f1e4fbdf7000000000000000000000000000000000000000000000000000000008152600401610a6091906122bc565b60405180910390fd5b610a7281610c52565b50565b6000634906490660e01b7bffffffffffffffffffffffffffffffffffffffffffffffffffffffff1916827bffffffffffffffffffffffffffffffffffffffffffffffffffffffff19161480610acf5750610ace826111c5565b5b9050919050565b600080610ae28361123f565b9050600073ffffffffffffffffffffffffffffffffffffffff168173ffffffffffffffffffffffffffffffffffffffff1603610b5557826040517f7e273289000000000000000000000000000000000000000000000000000000008152600401610b4c9190612352565b60405180910390fd5b80915050919050565b60006004600083815260200190815260200160002060009054906101000a900473ffffffffffffffffffffffffffffffffffffffff169050919050565b600033905090565b610bb0838383600161127c565b505050565b6000610bc2848484611441565b90509392505050565b610bd3610b9b565b73ffffffffffffffffffffffffffffffffffffffff16610bf161080f565b73ffffffffffffffffffffffffffffffffffffffff1614610c5057610c14610b9b565b6040517f118cdaa7000000000000000000000000000000000000000000000000000000008152600401610c4791906122bc565b60405180910390fd5b565b6000600b60009054906101000a900473ffffffffffffffffffffffffffffffffffffffff16905081600b60006101000a81548173ffffffffffffffffffffffffffffffffffffffff021916908373ffffffffffffffffffffffffffffffffffffffff1602179055508173ffffffffffffffffffffffffffffffffffffffff168173ffffffffffffffffffffffffffffffffffffffff167f8be0079c531659141344cd1fd0a4f28419497f9722a3daafe3b4186f6b6457e060405160405180910390a35050565b600073ffffffffffffffffffffffffffffffffffffffff168273ffffffffffffffffffffffffffffffffffffffff1603610d8957816040517f5b08ba18000000000000000000000000000000000000000000000000000000008152600401610d8091906122bc565b60405180910390fd5b80600560008573ffffffffffffffffffffffffffffffffffffffff1673ffffffffffffffffffffffffffffffffffffffff16815260200190815260200160002060008473ffffffffffffffffffffffffffffffffffffffff1673ffffffffffffffffffffffffffffffffffffffff16815260200190815260200160002060006101000a81548160ff0219169083151502179055508173ffffffffffffffffffffffffffffffffffffffff168373ffffffffffffffffffffffffffffffffffffffff167f17307eab39ab6107e8899845ad3d59bd9653f200f220920489ca2b5937696c3183604051610e7a919061214b565b60405180910390a3505050565b60008373ffffffffffffffffffffffffffffffffffffffff163b1115611031578273ffffffffffffffffffffffffffffffffffffffff1663150b7a02868685856040518563ffffffff1660e01b8152600401610ee69493929190612909565b6020604051808303816000875af1925050508015610f2257506040513d601f19601f82011682018060405250810190610f1f919061296a565b60015b610fa6573d8060008114610f52576040519150601f19603f3d011682016040523d82523d6000602084013e610f57565b606091505b506000815103610f9e57836040517f64a0ae92000000000000000000000000000000000000000000000000000000008152600401610f9591906122bc565b60405180910390fd5b805181602001fd5b63150b7a0260e01b7bffffffffffffffffffffffffffffffffffffffffffffffffffffffff1916817bffffffffffffffffffffffffffffffffffffffffffffffffffffffff19161461102f57836040517f64a0ae9200000000000000000000000000000000000000000000000000000000815260040161102691906122bc565b60405180910390fd5b505b5050505050565b606061104382610ad6565b506000600a600084815260200190815260200160002080546110649061277d565b80601f01602080910402602001604051908101604052809291908181526020018280546110909061277d565b80156110dd5780601f106110b2576101008083540402835291602001916110dd565b820191906000526020600020905b8154815290600101906020018083116110c057829003601f168201915b5050505050905060006110ee61155e565b90506000815103611103578192505050611146565b6000825111156111385780826040516020016111209291906129d3565b60405160208183030381529060405292505050611146565b61114184611575565b925050505b919050565b6111658282604051806020016040528060008152506115de565b5050565b80600a600084815260200190815260200160002090816111899190612ba3565b507ff8e1a15aba9398e019f0b49df1a4fde98ee17ae345cb5f6b5e2c27f5033e8ce7826040516111b99190612352565b60405180910390a15050565b60007f780e9d63000000000000000000000000000000000000000000000000000000007bffffffffffffffffffffffffffffffffffffffffffffffffffffffff1916827bffffffffffffffffffffffffffffffffffffffffffffffffffffffff19161480611238575061123782611602565b5b9050919050565b60006002600083815260200190815260200160002060009054906101000a900473ffffffffffffffffffffffffffffffffffffffff169050919050565b80806112b55750600073ffffffffffffffffffffffffffffffffffffffff168273ffffffffffffffffffffffffffffffffffffffff1614155b156113e95760006112c584610ad6565b9050600073ffffffffffffffffffffffffffffffffffffffff168373ffffffffffffffffffffffffffffffffffffffff161415801561133057508273ffffffffffffffffffffffffffffffffffffffff168173ffffffffffffffffffffffffffffffffffffffff1614155b80156113435750611341818461095b565b155b1561138557826040517fa9fbf51f00000000000000000000000000000000000000000000000000000000815260040161137c91906122bc565b60405180910390fd5b81156113e757838573ffffffffffffffffffffffffffffffffffffffff168273ffffffffffffffffffffffffffffffffffffffff167f8c5be1e5ebec7d5bd14f71427d1e84f3dd0314c0f7b2291e5b200ac8c7c3b92560405160405180910390a45b505b836004600085815260200190815260200160002060006101000a81548173ffffffffffffffffffffffffffffffffffffffff021916908373ffffffffffffffffffffffffffffffffffffffff16021790555050505050565b60008061144f8585856116e4565b9050600073ffffffffffffffffffffffffffffffffffffffff168173ffffffffffffffffffffffffffffffffffffffff16036114935761148e846118fe565b6114d2565b8473ffffffffffffffffffffffffffffffffffffffff168173ffffffffffffffffffffffffffffffffffffffff16146114d1576114d08185611947565b5b5b600073ffffffffffffffffffffffffffffffffffffffff168573ffffffffffffffffffffffffffffffffffffffff16036115145761150f84611a32565b611553565b8473ffffffffffffffffffffffffffffffffffffffff168173ffffffffffffffffffffffffffffffffffffffff1614611552576115518585611b03565b5b5b809150509392505050565b606060405180602001604052806000815250905090565b606061158082610ad6565b50600061158b61155e565b905060008151116115ab57604051806020016040528060008152506115d6565b806115b584611b8e565b6040516020016115c69291906129d3565b6040516020818303038152906040525b915050919050565b6115e88383611c5c565b6115fd6115f3610b9b565b6000858585610e87565b505050565b60007f80ac58cd000000000000000000000000000000000000000000000000000000007bffffffffffffffffffffffffffffffffffffffffffffffffffffffff1916827bffffffffffffffffffffffffffffffffffffffffffffffffffffffff191614806116cd57507f5b5e139f000000000000000000000000000000000000000000000000000000007bffffffffffffffffffffffffffffffffffffffffffffffffffffffff1916827bffffffffffffffffffffffffffffffffffffffffffffffffffffffff1916145b806116dd57506116dc82611d55565b5b9050919050565b6000806116f08461123f565b9050600073ffffffffffffffffffffffffffffffffffffffff168373ffffffffffffffffffffffffffffffffffffffff161461173257611731818486611dbf565b5b600073ffffffffffffffffffffffffffffffffffffffff168173ffffffffffffffffffffffffffffffffffffffff16146117c35761177460008560008061127c565b6001600360008373ffffffffffffffffffffffffffffffffffffffff1673ffffffffffffffffffffffffffffffffffffffff168152602001908152602001600020600082825403925050819055505b600073ffffffffffffffffffffffffffffffffffffffff168573ffffffffffffffffffffffffffffffffffffffff1614611846576001600360008773ffffffffffffffffffffffffffffffffffffffff1673ffffffffffffffffffffffffffffffffffffffff168152602001908152602001600020600082825401925050819055505b846002600086815260200190815260200160002060006101000a81548173ffffffffffffffffffffffffffffffffffffffff021916908373ffffffffffffffffffffffffffffffffffffffff160217905550838573ffffffffffffffffffffffffffffffffffffffff168273ffffffffffffffffffffffffffffffffffffffff167fddf252ad1be2c89b69c2b068fc378daa952ba7f163c4a11628f55a4df523b3ef60405160405180910390a4809150509392505050565b6008805490506009600083815260200190815260200160002081905550600881908060018154018082558091505060019003906000526020600020016000909190919091505550565b600061195283610741565b90506000600760008481526020019081526020016000205490506000600660008673ffffffffffffffffffffffffffffffffffffffff1673ffffffffffffffffffffffffffffffffffffffff16815260200190815260200160002090508282146119fe5760008160008581526020019081526020016000205490508082600085815260200190815260200160002081905550826007600083815260200190815260200160002081905550505b6007600085815260200190815260200160002060009055806000848152602001908152602001600020600090555050505050565b60006001600880549050611a469190612c75565b9050600060096000848152602001908152602001600020549050600060088381548110611a7657611a7561280e565b5b906000526020600020015490508060088381548110611a9857611a9761280e565b5b906000526020600020018190555081600960008381526020019081526020016000208190555060096000858152602001908152602001600020600090556008805480611ae757611ae6612ca9565b5b6001900381819060005260206000200160009055905550505050565b60006001611b1084610741565b611b1a9190612c75565b905081600660008573ffffffffffffffffffffffffffffffffffffffff1673ffffffffffffffffffffffffffffffffffffffff168152602001908152602001600020600083815260200190815260200160002081905550806007600084815260200190815260200160002081905550505050565b606060006001611b9d84611e83565b01905060008167ffffffffffffffff811115611bbc57611bbb612463565b5b6040519080825280601f01601f191660200182016040528015611bee5781602001600182028036833780820191505090505b509050600082602001820190505b600115611c51578080600190039150507f3031323334353637383961626364656600000000000000000000000000000000600a86061a8153600a8581611c4557611c44612cd8565b5b04945060008503611bfc575b819350505050919050565b600073ffffffffffffffffffffffffffffffffffffffff168273ffffffffffffffffffffffffffffffffffffffff1603611cce5760006040517f64a0ae92000000000000000000000000000000000000000000000000000000008152600401611cc591906122bc565b60405180910390fd5b6000611cdc83836000610bb5565b9050600073ffffffffffffffffffffffffffffffffffffffff168173ffffffffffffffffffffffffffffffffffffffff1614611d505760006040517f73c6ac6e000000000000000000000000000000000000000000000000000000008152600401611d4791906122bc565b60405180910390fd5b505050565b60007f01ffc9a7000000000000000000000000000000000000000000000000000000007bffffffffffffffffffffffffffffffffffffffffffffffffffffffff1916827bffffffffffffffffffffffffffffffffffffffffffffffffffffffff1916149050919050565b611dca838383611fd6565b611e7e57600073ffffffffffffffffffffffffffffffffffffffff168373ffffffffffffffffffffffffffffffffffffffff1603611e3f57806040517f7e273289000000000000000000000000000000000000000000000000000000008152600401611e369190612352565b60405180910390fd5b81816040517f177e802f000000000000000000000000000000000000000000000000000000008152600401611e759291906127e5565b60405180910390fd5b505050565b600080600090507a184f03e93ff9f4daa797ed6e38ed64bf6a1f0100000000000000008310611ee1577a184f03e93ff9f4daa797ed6e38ed64bf6a1f0100000000000000008381611ed757611ed6612cd8565b5b0492506040810190505b6d04ee2d6d415b85acef81000000008310611f1e576d04ee2d6d415b85acef81000000008381611f1457611f13612cd8565b5b0492506020810190505b662386f26fc100008310611f4d57662386f26fc100008381611f4357611f42612cd8565b5b0492506010810190505b6305f5e1008310611f76576305f5e1008381611f6c57611f6b612cd8565b5b0492506008810190505b6127108310611f9b576127108381611f9157611f90612cd8565b5b0492506004810190505b60648310611fbe5760648381611fb457611fb3612cd8565b5b0492506002810190505b600a8310611fcd576001810190505b80915050919050565b60008073ffffffffffffffffffffffffffffffffffffffff168373ffffffffffffffffffffffffffffffffffffffff161415801561208e57508273ffffffffffffffffffffffffffffffffffffffff168473ffffffffffffffffffffffffffffffffffffffff16148061204f575061204e848461095b565b5b8061208d57508273ffffffffffffffffffffffffffffffffffffffff1661207583610b5e565b73ffffffffffffffffffffffffffffffffffffffff16145b5b90509392505050565b6000604051905090565b600080fd5b600080fd5b60007fffffffff0000000000000000000000000000000000000000000000000000000082169050919050565b6120e0816120ab565b81146120eb57600080fd5b50565b6000813590506120fd816120d7565b92915050565b600060208284031215612119576121186120a1565b5b6000612127848285016120ee565b91505092915050565b60008115159050919050565b61214581612130565b82525050565b6000602082019050612160600083018461213c565b92915050565b600081519050919050565b600082825260208201905092915050565b60005b838110156121a0578082015181840152602081019050612185565b60008484015250505050565b6000601f19601f8301169050919050565b60006121c882612166565b6121d28185612171565b93506121e2818560208601612182565b6121eb816121ac565b840191505092915050565b6000602082019050818103600083015261221081846121bd565b905092915050565b6000819050919050565b61222b81612218565b811461223657600080fd5b50565b60008135905061224881612222565b92915050565b600060208284031215612264576122636120a1565b5b600061227284828501612239565b91505092915050565b600073ffffffffffffffffffffffffffffffffffffffff82169050919050565b60006122a68261227b565b9050919050565b6122b68161229b565b82525050565b60006020820190506122d160008301846122ad565b92915050565b6122e08161229b565b81146122eb57600080fd5b50565b6000813590506122fd816122d7565b92915050565b6000806040838503121561231a576123196120a1565b5b6000612328858286016122ee565b925050602061233985828601612239565b9150509250929050565b61234c81612218565b82525050565b60006020820190506123676000830184612343565b92915050565b600080600060608486031215612386576123856120a1565b5b6000612394868287016122ee565b93505060206123a5868287016122ee565b92505060406123b686828701612239565b9150509250925092565b6000602082840312156123d6576123d56120a1565b5b60006123e4848285016122ee565b91505092915050565b6123f681612130565b811461240157600080fd5b50565b600081359050612413816123ed565b92915050565b600080604083850312156124305761242f6120a1565b5b600061243e858286016122ee565b925050602061244f85828601612404565b9150509250929050565b600080fd5b600080fd5b7f4e487b7100000000000000000000000000000000000000000000000000000000600052604160045260246000fd5b61249b826121ac565b810181811067ffffffffffffffff821117156124ba576124b9612463565b5b80604052505050565b60006124cd612097565b90506124d98282612492565b919050565b600067ffffffffffffffff8211156124f9576124f8612463565b5b612502826121ac565b9050602081019050919050565b82818337600083830152505050565b600061253161252c846124de565b6124c3565b90508281526020810184848401111561254d5761254c61245e565b5b61255884828561250f565b509392505050565b600082601f83011261257557612574612459565b5b813561258584826020860161251e565b91505092915050565b600080600080608085870312156125a8576125a76120a1565b5b60006125b6878288016122ee565b94505060206125c7878288016122ee565b93505060406125d887828801612239565b925050606085013567ffffffffffffffff8111156125f9576125f86120a6565b5b61260587828801612560565b91505092959194509250565b600067ffffffffffffffff82111561262c5761262b612463565b5b612635826121ac565b9050602081019050919050565b600061265561265084612611565b6124c3565b9050828152602081018484840111156126715761267061245e565b5b61267c84828561250f565b509392505050565b600082601f83011261269957612698612459565b5b81356126a9848260208601612642565b91505092915050565b600080604083850312156126c9576126c86120a1565b5b60006126d7858286016122ee565b925050602083013567ffffffffffffffff8111156126f8576126f76120a6565b5b61270485828601612684565b9150509250929050565b60008060408385031215612725576127246120a1565b5b6000612733858286016122ee565b9250506020612744858286016122ee565b9150509250929050565b7f4e487b7100000000000000000000000000000000000000000000000000000000600052602260045260246000fd5b6000600282049050600182168061279557607f821691505b6020821081036127a8576127a761274e565b5b50919050565b60006060820190506127c360008301866122ad565b6127d06020830185612343565b6127dd60408301846122ad565b949350505050565b60006040820190506127fa60008301856122ad565b6128076020830184612343565b9392505050565b7f4e487b7100000000000000000000000000000000000000000000000000000000600052603260045260246000fd5b7f4e487b7100000000000000000000000000000000000000000000000000000000600052601160045260246000fd5b600061287782612218565b91507fffffffffffffffffffffffffffffffffffffffffffffffffffffffffffffffff82036128a9576128a861283d565b5b600182019050919050565b600081519050919050565b600082825260208201905092915050565b60006128db826128b4565b6128e581856128bf565b93506128f5818560208601612182565b6128fe816121ac565b840191505092915050565b600060808201905061291e60008301876122ad565b61292b60208301866122ad565b6129386040830185612343565b818103606083015261294a81846128d0565b905095945050505050565b600081519050612964816120d7565b92915050565b6000602082840312156129805761297f6120a1565b5b600061298e84828501612955565b91505092915050565b600081905092915050565b60006129ad82612166565b6129b78185612997565b93506129c7818560208601612182565b80840191505092915050565b60006129df82856129a2565b91506129eb82846129a2565b91508190509392505050565b60008190508160005260206000209050919050565b60006020601f8301049050919050565b600082821b905092915050565b600060088302612a597fffffffffffffffffffffffffffffffffffffffffffffffffffffffffffffffff82612a1c565b612a638683612a1c565b95508019841693508086168417925050509392505050565b6000819050919050565b6000612aa0612a9b612a9684612218565b612a7b565b612218565b9050919050565b6000819050919050565b612aba83612a85565b612ace612ac682612aa7565b848454612a29565b825550505050565b600090565b612ae3612ad6565b612aee818484612ab1565b505050565b5b81811015612b1257612b07600082612adb565b600181019050612af4565b5050565b601f821115612b5757612b28816129f7565b612b3184612a0c565b81016020851015612b40578190505b612b54612b4c85612a0c565b830182612af3565b50505b505050565b600082821c905092915050565b6000612b7a60001984600802612b5c565b1980831691505092915050565b6000612b938383612b69565b9150826002028217905092915050565b612bac82612166565b67ffffffffffffffff811115612bc557612bc4612463565b5b612bcf825461277d565b612bda828285612b16565b600060209050601f831160018114612c0d5760008415612bfb578287015190505b612c058582612b87565b865550612c6d565b601f198416612c1b866129f7565b60005b82811015612c4357848901518255600182019150602085019450602081019050612c1e565b86831015612c605784890151612c5c601f891682612b69565b8355505b6001600288020188555050505b505050505050565b6000612c8082612218565b9150612c8b83612218565b9250828203905081811115612ca357612ca261283d565b5b92915050565b7f4e487b7100000000000000000000000000000000000000000000000000000000600052603160045260246000fd5b7f4e487b7100000000000000000000000000000000000000000000000000000000600052601260045260246000fdfea26469706673582212203bc4d5b164912912f8907143437436b3572ea5fec28569a638e743a28a0443a764736f6c63430008170033",
  "linkReferences": {},
  "deployedLinkReferences": {}
}